{
  "contractName": "ExampleNFT",
  "abi": [
    {
      "inputs": [],
      "stateMutability": "nonpayable",
      "type": "constructor"
    },
    {
      "anonymous": false,
      "inputs": [
        {
          "indexed": true,
          "internalType": "address",
          "name": "owner",
          "type": "address"
        },
        {
          "indexed": true,
          "internalType": "address",
          "name": "approved",
          "type": "address"
        },
        {
          "indexed": true,
          "internalType": "uint256",
          "name": "tokenId",
          "type": "uint256"
        }
      ],
      "name": "Approval",
      "type": "event"
    },
    {
      "anonymous": false,
      "inputs": [
        {
          "indexed": true,
          "internalType": "address",
          "name": "owner",
          "type": "address"
        },
        {
          "indexed": true,
          "internalType": "address",
          "name": "operator",
          "type": "address"
        },
        {
          "indexed": false,
          "internalType": "bool",
          "name": "approved",
          "type": "bool"
        }
      ],
      "name": "ApprovalForAll",
      "type": "event"
    },
    {
      "anonymous": false,
      "inputs": [
        {
          "indexed": true,
          "internalType": "address",
          "name": "previousOwner",
          "type": "address"
        },
        {
          "indexed": true,
          "internalType": "address",
          "name": "newOwner",
          "type": "address"
        }
      ],
      "name": "OwnershipTransferred",
      "type": "event"
    },
    {
      "anonymous": false,
      "inputs": [
        {
          "indexed": false,
          "internalType": "uint256",
          "name": "supply",
          "type": "uint256"
        }
      ],
      "name": "TokenMinted",
      "type": "event"
    },
    {
      "anonymous": false,
      "inputs": [
        {
          "indexed": true,
          "internalType": "address",
          "name": "from",
          "type": "address"
        },
        {
          "indexed": true,
          "internalType": "address",
          "name": "to",
          "type": "address"
        },
        {
          "indexed": true,
          "internalType": "uint256",
          "name": "tokenId",
          "type": "uint256"
        }
      ],
      "name": "Transfer",
      "type": "event"
    },
    {
      "inputs": [],
      "name": "MAX_SUPPLY",
      "outputs": [
        {
          "internalType": "uint256",
          "name": "",
          "type": "uint256"
        }
      ],
      "stateMutability": "view",
      "type": "function"
    },
    {
      "inputs": [],
      "name": "_isAuctionActive",
      "outputs": [
        {
          "internalType": "bool",
          "name": "",
          "type": "bool"
        }
      ],
      "stateMutability": "view",
      "type": "function"
    },
    {
      "inputs": [],
      "name": "_isSaleActive",
      "outputs": [
        {
          "internalType": "bool",
          "name": "",
          "type": "bool"
        }
      ],
      "stateMutability": "view",
      "type": "function"
    },
    {
      "inputs": [],
      "name": "_isWhiteListSaleActive",
      "outputs": [
        {
          "internalType": "bool",
          "name": "",
          "type": "bool"
        }
      ],
      "stateMutability": "view",
      "type": "function"
    },
    {
      "inputs": [
        {
          "internalType": "address",
          "name": "to",
          "type": "address"
        },
        {
          "internalType": "uint256",
          "name": "tokenId",
          "type": "uint256"
        }
      ],
      "name": "approve",
      "outputs": [],
      "stateMutability": "nonpayable",
      "type": "function"
    },
    {
      "inputs": [],
      "name": "auctionEndPrice",
      "outputs": [
        {
          "internalType": "uint256",
          "name": "",
          "type": "uint256"
        }
      ],
      "stateMutability": "view",
      "type": "function"
    },
    {
      "inputs": [],
      "name": "auctionPriceStep",
      "outputs": [
        {
          "internalType": "uint256",
          "name": "",
          "type": "uint256"
        }
      ],
      "stateMutability": "view",
      "type": "function"
    },
    {
      "inputs": [],
      "name": "auctionStartPrice",
      "outputs": [
        {
          "internalType": "uint256",
          "name": "",
          "type": "uint256"
        }
      ],
      "stateMutability": "view",
      "type": "function"
    },
    {
      "inputs": [],
      "name": "auctionStartTime",
      "outputs": [
        {
          "internalType": "uint256",
          "name": "",
          "type": "uint256"
        }
      ],
      "stateMutability": "view",
      "type": "function"
    },
    {
      "inputs": [],
      "name": "auctionStepNumber",
      "outputs": [
        {
          "internalType": "uint256",
          "name": "",
          "type": "uint256"
        }
      ],
      "stateMutability": "view",
      "type": "function"
    },
    {
      "inputs": [],
      "name": "auctionTimeStep",
      "outputs": [
        {
          "internalType": "uint256",
          "name": "",
          "type": "uint256"
        }
      ],
      "stateMutability": "view",
      "type": "function"
    },
    {
      "inputs": [
        {
          "internalType": "address",
          "name": "owner",
          "type": "address"
        }
      ],
      "name": "balanceOf",
      "outputs": [
        {
          "internalType": "uint256",
          "name": "",
          "type": "uint256"
        }
      ],
      "stateMutability": "view",
      "type": "function"
    },
    {
      "inputs": [
        {
          "internalType": "uint256",
          "name": "tokenId",
          "type": "uint256"
        }
      ],
      "name": "getApproved",
      "outputs": [
        {
          "internalType": "address",
          "name": "",
          "type": "address"
        }
      ],
      "stateMutability": "view",
      "type": "function"
    },
    {
      "inputs": [
        {
          "internalType": "address",
          "name": "owner",
          "type": "address"
        },
        {
          "internalType": "address",
          "name": "operator",
          "type": "address"
        }
      ],
      "name": "isApprovedForAll",
      "outputs": [
        {
          "internalType": "bool",
          "name": "",
          "type": "bool"
        }
      ],
      "stateMutability": "view",
      "type": "function"
    },
    {
      "inputs": [],
      "name": "maxBalance",
      "outputs": [
        {
          "internalType": "uint256",
          "name": "",
          "type": "uint256"
        }
      ],
      "stateMutability": "view",
      "type": "function"
    },
    {
      "inputs": [],
      "name": "maxMint",
      "outputs": [
        {
          "internalType": "uint256",
          "name": "",
          "type": "uint256"
        }
      ],
      "stateMutability": "view",
      "type": "function"
    },
    {
      "inputs": [],
      "name": "mintPrice",
      "outputs": [
        {
          "internalType": "uint256",
          "name": "",
          "type": "uint256"
        }
      ],
      "stateMutability": "view",
      "type": "function"
    },
    {
      "inputs": [],
      "name": "name",
      "outputs": [
        {
          "internalType": "string",
          "name": "",
          "type": "string"
        }
      ],
      "stateMutability": "view",
      "type": "function"
    },
    {
      "inputs": [],
      "name": "owner",
      "outputs": [
        {
          "internalType": "address",
          "name": "",
          "type": "address"
        }
      ],
      "stateMutability": "view",
      "type": "function"
    },
    {
      "inputs": [
        {
          "internalType": "uint256",
          "name": "tokenId",
          "type": "uint256"
        }
      ],
      "name": "ownerOf",
      "outputs": [
        {
          "internalType": "address",
          "name": "",
          "type": "address"
        }
      ],
      "stateMutability": "view",
      "type": "function"
    },
    {
      "inputs": [],
      "name": "renounceOwnership",
      "outputs": [],
      "stateMutability": "nonpayable",
      "type": "function"
    },
    {
      "inputs": [
        {
          "internalType": "address",
          "name": "from",
          "type": "address"
        },
        {
          "internalType": "address",
          "name": "to",
          "type": "address"
        },
        {
          "internalType": "uint256",
          "name": "tokenId",
          "type": "uint256"
        }
      ],
      "name": "safeTransferFrom",
      "outputs": [],
      "stateMutability": "nonpayable",
      "type": "function"
    },
    {
      "inputs": [
        {
          "internalType": "address",
          "name": "from",
          "type": "address"
        },
        {
          "internalType": "address",
          "name": "to",
          "type": "address"
        },
        {
          "internalType": "uint256",
          "name": "tokenId",
          "type": "uint256"
        },
        {
          "internalType": "bytes",
          "name": "_data",
          "type": "bytes"
        }
      ],
      "name": "safeTransferFrom",
      "outputs": [],
      "stateMutability": "nonpayable",
      "type": "function"
    },
    {
      "inputs": [
        {
          "internalType": "address",
          "name": "operator",
          "type": "address"
        },
        {
          "internalType": "bool",
          "name": "approved",
          "type": "bool"
        }
      ],
      "name": "setApprovalForAll",
      "outputs": [],
      "stateMutability": "nonpayable",
      "type": "function"
    },
    {
      "inputs": [],
      "name": "symbol",
      "outputs": [
        {
          "internalType": "string",
          "name": "",
          "type": "string"
        }
      ],
      "stateMutability": "view",
      "type": "function"
    },
    {
      "inputs": [],
      "name": "tierSupply",
      "outputs": [
        {
          "internalType": "uint256",
          "name": "",
          "type": "uint256"
        }
      ],
      "stateMutability": "view",
      "type": "function"
    },
    {
      "inputs": [
        {
          "internalType": "uint256",
          "name": "index",
          "type": "uint256"
        }
      ],
      "name": "tokenByIndex",
      "outputs": [
        {
          "internalType": "uint256",
          "name": "",
          "type": "uint256"
        }
      ],
      "stateMutability": "view",
      "type": "function"
    },
    {
      "inputs": [
        {
          "internalType": "address",
          "name": "owner",
          "type": "address"
        },
        {
          "internalType": "uint256",
          "name": "index",
          "type": "uint256"
        }
      ],
      "name": "tokenOfOwnerByIndex",
      "outputs": [
        {
          "internalType": "uint256",
          "name": "",
          "type": "uint256"
        }
      ],
      "stateMutability": "view",
      "type": "function"
    },
    {
      "inputs": [],
      "name": "totalSupply",
      "outputs": [
        {
          "internalType": "uint256",
          "name": "",
          "type": "uint256"
        }
      ],
      "stateMutability": "view",
      "type": "function"
    },
    {
      "inputs": [
        {
          "internalType": "address",
          "name": "from",
          "type": "address"
        },
        {
          "internalType": "address",
          "name": "to",
          "type": "address"
        },
        {
          "internalType": "uint256",
          "name": "tokenId",
          "type": "uint256"
        }
      ],
      "name": "transferFrom",
      "outputs": [],
      "stateMutability": "nonpayable",
      "type": "function"
    },
    {
      "inputs": [
        {
          "internalType": "address",
          "name": "newOwner",
          "type": "address"
        }
      ],
      "name": "transferOwnership",
      "outputs": [],
      "stateMutability": "nonpayable",
      "type": "function"
    },
    {
      "inputs": [
        {
          "internalType": "address",
          "name": "",
          "type": "address"
        }
      ],
      "name": "whiteList",
      "outputs": [
        {
          "internalType": "bool",
          "name": "",
          "type": "bool"
        }
      ],
      "stateMutability": "view",
      "type": "function"
    },
    {
      "inputs": [],
      "name": "whiteListPrice",
      "outputs": [
        {
          "internalType": "uint256",
          "name": "",
          "type": "uint256"
        }
      ],
      "stateMutability": "view",
      "type": "function"
    },
    {
      "inputs": [],
      "name": "flipWhiteListSaleActive",
      "outputs": [],
      "stateMutability": "nonpayable",
      "type": "function"
    },
    {
      "inputs": [],
      "name": "filpSaleActive",
      "outputs": [],
      "stateMutability": "nonpayable",
      "type": "function"
    },
    {
      "inputs": [],
      "name": "flipAuctionActive",
      "outputs": [],
      "stateMutability": "nonpayable",
      "type": "function"
    },
    {
      "inputs": [
        {
          "internalType": "uint256",
          "name": "_mintPrice",
          "type": "uint256"
        }
      ],
      "name": "setMintPrice",
      "outputs": [],
      "stateMutability": "nonpayable",
      "type": "function"
    },
    {
      "inputs": [
        {
          "internalType": "uint256",
          "name": "_whiteListPrice",
          "type": "uint256"
        }
      ],
      "name": "setWhiteListPrice",
      "outputs": [],
      "stateMutability": "nonpayable",
      "type": "function"
    },
    {
      "inputs": [
        {
          "internalType": "uint256",
          "name": "_tierSupply",
          "type": "uint256"
        }
      ],
      "name": "setTierSupply",
      "outputs": [],
      "stateMutability": "nonpayable",
      "type": "function"
    },
    {
      "inputs": [
        {
          "internalType": "uint256",
          "name": "_maxBalance",
          "type": "uint256"
        }
      ],
      "name": "setMaxBalance",
      "outputs": [],
      "stateMutability": "nonpayable",
      "type": "function"
    },
    {
      "inputs": [
        {
          "internalType": "uint256",
          "name": "_maxMint",
          "type": "uint256"
        }
      ],
      "name": "setMaxMint",
      "outputs": [],
      "stateMutability": "nonpayable",
      "type": "function"
    },
    {
      "inputs": [
        {
          "internalType": "uint256",
          "name": "_auctionStartTime",
          "type": "uint256"
        },
        {
          "internalType": "uint256",
          "name": "_auctionTimeStep",
          "type": "uint256"
        },
        {
          "internalType": "uint256",
          "name": "_auctionStartPrice",
          "type": "uint256"
        },
        {
          "internalType": "uint256",
          "name": "_auctionEndPrice",
          "type": "uint256"
        },
        {
          "internalType": "uint256",
          "name": "_auctionPriceStep",
          "type": "uint256"
        },
        {
          "internalType": "uint256",
          "name": "_auctionStepNumber",
          "type": "uint256"
        }
      ],
      "name": "setAuction",
      "outputs": [],
      "stateMutability": "nonpayable",
      "type": "function"
    },
    {
      "inputs": [
        {
          "internalType": "address[]",
          "name": "_whiteList",
          "type": "address[]"
        }
      ],
      "name": "setWhiteList",
      "outputs": [],
      "stateMutability": "nonpayable",
      "type": "function"
    },
    {
      "inputs": [
        {
          "internalType": "address",
          "name": "to",
          "type": "address"
        }
      ],
      "name": "withdraw",
      "outputs": [],
      "stateMutability": "nonpayable",
      "type": "function"
    },
    {
      "inputs": [
        {
          "internalType": "uint256",
          "name": "numEXNs",
          "type": "uint256"
        },
        {
          "internalType": "address",
          "name": "to",
          "type": "address"
        }
      ],
      "name": "preserveMint",
      "outputs": [],
      "stateMutability": "nonpayable",
      "type": "function"
    },
    {
      "inputs": [],
      "name": "getTotalSupply",
      "outputs": [
        {
          "internalType": "uint256",
          "name": "",
          "type": "uint256"
        }
      ],
      "stateMutability": "view",
      "type": "function"
    },
    {
      "inputs": [
        {
          "internalType": "address",
          "name": "_owner",
          "type": "address"
        }
      ],
      "name": "getExampleNFTByOwner",
      "outputs": [
        {
          "internalType": "uint256[]",
          "name": "",
          "type": "uint256[]"
        }
      ],
      "stateMutability": "view",
      "type": "function"
    },
    {
      "inputs": [],
      "name": "getAuctionPrice",
      "outputs": [
        {
          "internalType": "uint256",
          "name": "",
          "type": "uint256"
        }
      ],
      "stateMutability": "view",
      "type": "function"
    },
    {
      "inputs": [
        {
          "internalType": "uint256",
          "name": "numEXNs",
          "type": "uint256"
        }
      ],
      "name": "mintExampleNFT",
      "outputs": [],
      "stateMutability": "payable",
      "type": "function"
    },
    {
      "inputs": [
        {
          "internalType": "uint256",
          "name": "numEXNs",
          "type": "uint256"
        }
      ],
      "name": "whiteListMintExampleNFT",
      "outputs": [],
      "stateMutability": "payable",
      "type": "function"
    },
    {
      "inputs": [
        {
          "internalType": "uint256",
          "name": "numEXNs",
          "type": "uint256"
        }
      ],
      "name": "auctionMintExampleNFT",
      "outputs": [],
      "stateMutability": "payable",
      "type": "function"
    },
    {
      "inputs": [
        {
          "internalType": "string",
          "name": "baseURI_",
          "type": "string"
        }
      ],
      "name": "setBaseURI",
      "outputs": [],
      "stateMutability": "nonpayable",
      "type": "function"
    },
    {
      "inputs": [
        {
          "internalType": "uint256",
          "name": "tokenId",
          "type": "uint256"
        }
      ],
      "name": "tokenURI",
      "outputs": [
        {
          "internalType": "string",
          "name": "",
          "type": "string"
        }
      ],
      "stateMutability": "view",
      "type": "function"
    },
    {
      "inputs": [
        {
          "internalType": "bytes4",
          "name": "interfaceId",
          "type": "bytes4"
        }
      ],
      "name": "supportsInterface",
      "outputs": [
        {
          "internalType": "bool",
          "name": "",
          "type": "bool"
        }
      ],
      "stateMutability": "view",
      "type": "function"
    }
  ],
  "bytecode": "0x600a805462ffffff60a01b19169055670c7d713b49da0000600b819055600c556081600d556001600e819055600f5560c0604052600860808190526768747470733a2f2f60c01b60a09081526200005a916016919062000145565b503480156200006857600080fd5b50604080518082018252600a815269115e185b5c1b1953919560b21b60208083019182528351808501909452600384526222ac2760e91b908401528151919291620000b69160009162000145565b508051620000cc90600190602084019062000145565b505050620000e9620000e3620000ef60201b60201c565b620000f3565b62000228565b3390565b600a80546001600160a01b038381166001600160a01b0319831681179093556040519116919082907f8be0079c531659141344cd1fd0a4f28419497f9722a3daafe3b4186f6b6457e090600090a35050565b8280546200015390620001eb565b90600052602060002090601f016020900481019282620001775760008555620001c2565b82601f106200019257805160ff1916838001178555620001c2565b82800160010185558215620001c2579182015b82811115620001c2578251825591602001919060010190620001a5565b50620001d0929150620001d4565b5090565b5b80821115620001d05760008155600101620001d5565b600181811c908216806200020057607f821691505b602082108114156200022257634e487b7160e01b600052602260045260246000fd5b50919050565b612e8a80620002386000396000f3fe6080604052600436106102755760003560e01c80636817c76c1161014b5780636817c76c146105c457806368575685146105da5780636a99cacb146105f05780637080d6fc1461061057806370a0823114610631578063715018a61461065157806373ad468a146106665780637501f7411461067c578063775b9c13146106925780638da5cb5b146106b25780639196eba5146106c757806395d89b41146106dd578063964dd240146106f25780639d51d9b714610708578063a04a6ac814610728578063a22cb4651461073e578063b88d4fde1461075e578063beafc89b1461077e578063c4e41b221461079e578063c87b56dd146107b3578063d756985b146107d3578063e8eacd55146107e9578063e985e9c5146107fc578063eb54f9ec1461081c578063f11207d814610832578063f2fde38b14610853578063f4a0a5281461087357600080fd5b806301ffc9a71461027a57806306fdde03146102af578063081812fc146102d1578063095ea7b31461030957806312675f361461032b57806318160ddd146103405780631ca62dbc1461035f578063209ee2971461037457806323b872dd1461039457806326cf76b6146103b45780632f745c59146103d557806332cb6b0c146103f5578063372c12b11461040b57806342835c411461043b57806342842e0e146104505780634698a3d8146104705780634bd25c6f146104865780634ea4db4e1461049b5780634f6ccce7146104ae57806351cff8d9146104ce578063547520fe146104ee578063549b9da51461050e57806355f804b3146105245780635c536682146105445780635edd95f91461055757806360ff5c9e146105775780636352211e146105a4575b600080fd5b34801561028657600080fd5b5061029a610295366004612662565b610893565b60405190151581526020015b60405180910390f35b3480156102bb57600080fd5b506102c46108a4565b6040516102a691906126de565b3480156102dd57600080fd5b506102f16102ec3660046126f1565b610936565b6040516001600160a01b0390911681526020016102a6565b34801561031557600080fd5b50610329610324366004612726565b6109c3565b005b34801561033757600080fd5b50610329610ad4565b34801561034c57600080fd5b506008545b6040519081526020016102a6565b34801561036b57600080fd5b50610329610b24565b34801561038057600080fd5b5061032961038f3660046126f1565b610b74565b3480156103a057600080fd5b506103296103af366004612750565b610ba8565b3480156103c057600080fd5b50600a5461029a90600160b01b900460ff1681565b3480156103e157600080fd5b506103516103f0366004612726565b610bd9565b34801561040157600080fd5b506103516103e781565b34801561041757600080fd5b5061029a61042636600461278c565b60176020526000908152604090205460ff1681565b34801561044757600080fd5b50610329610c6f565b34801561045c57600080fd5b5061032961046b366004612750565b610cbf565b34801561047c57600080fd5b5061035160145481565b34801561049257600080fd5b50610351610cda565b6103296104a93660046126f1565b610d70565b3480156104ba57600080fd5b506103516104c93660046126f1565b610ecf565b3480156104da57600080fd5b506103296104e936600461278c565b610f62565b3480156104fa57600080fd5b506103296105093660046126f1565b610fc9565b34801561051a57600080fd5b50610351600d5481565b34801561053057600080fd5b5061032961053f366004612832565b610ffd565b6103296105523660046126f1565b611043565b34801561056357600080fd5b5061032961057236600461287a565b61121b565b34801561058357600080fd5b5061059761059236600461278c565b61133b565b6040516102a691906128a6565b3480156105b057600080fd5b506102f16105bf3660046126f1565b6113dc565b3480156105d057600080fd5b50610351600b5481565b3480156105e657600080fd5b50610351600c5481565b3480156105fc57600080fd5b5061032961060b3660046128ea565b611453565b34801561061c57600080fd5b50600a5461029a90600160a81b900460ff1681565b34801561063d57600080fd5b5061035161064c36600461278c565b61149f565b34801561065d57600080fd5b50610329611526565b34801561067257600080fd5b50610351600e5481565b34801561068857600080fd5b50610351600f5481565b34801561069e57600080fd5b506103296106ad36600461292d565b611561565b3480156106be57600080fd5b506102f1611602565b3480156106d357600080fd5b5061035160115481565b3480156106e957600080fd5b506102c4611611565b3480156106fe57600080fd5b5061035160155481565b34801561071457600080fd5b506103296107233660046126f1565b611620565b34801561073457600080fd5b5061035160135481565b34801561074a57600080fd5b506103296107593660046129a1565b611654565b34801561076a57600080fd5b506103296107793660046129dd565b61165f565b34801561078a57600080fd5b506103296107993660046126f1565b611697565b3480156107aa57600080fd5b506103516116cb565b3480156107bf57600080fd5b506102c46107ce3660046126f1565b6116db565b3480156107df57600080fd5b5061035160125481565b6103296107f73660046126f1565b611782565b34801561080857600080fd5b5061029a610817366004612a58565b6119c7565b34801561082857600080fd5b5061035160105481565b34801561083e57600080fd5b50600a5461029a90600160a01b900460ff1681565b34801561085f57600080fd5b5061032961086e36600461278c565b6119f5565b34801561087f57600080fd5b5061032961088e3660046126f1565b611a95565b600061089e82611ac9565b92915050565b6060600080546108b390612a82565b80601f01602080910402602001604051908101604052809291908181526020018280546108df90612a82565b801561092c5780601f106109015761010080835404028352916020019161092c565b820191906000526020600020905b81548152906001019060200180831161090f57829003601f168201915b5050505050905090565b600061094182611aee565b6109a75760405162461bcd60e51b815260206004820152602c60248201527f4552433732313a20617070726f76656420717565727920666f72206e6f6e657860448201526b34b9ba32b73a103a37b5b2b760a11b60648201526084015b60405180910390fd5b506000908152600460205260409020546001600160a01b031690565b60006109ce826113dc565b9050806001600160a01b0316836001600160a01b03161415610a3c5760405162461bcd60e51b815260206004820152602160248201527f4552433732313a20617070726f76616c20746f2063757272656e74206f776e656044820152603960f91b606482015260840161099e565b336001600160a01b0382161480610a585750610a5881336119c7565b610ac55760405162461bcd60e51b815260206004820152603860248201527f4552433732313a20617070726f76652063616c6c6572206973206e6f74206f776044820152771b995c881b9bdc88185c1c1c9bdd995908199bdc88185b1b60421b606482015260840161099e565b610acf8383611b0b565b505050565b33610add611602565b6001600160a01b031614610b035760405162461bcd60e51b815260040161099e90612abd565b600a805460ff60a81b198116600160a81b9182900460ff1615909102179055565b33610b2d611602565b6001600160a01b031614610b535760405162461bcd60e51b815260040161099e90612abd565b600a805460ff60a01b198116600160a01b9182900460ff1615909102179055565b33610b7d611602565b6001600160a01b031614610ba35760405162461bcd60e51b815260040161099e90612abd565b600d55565b610bb23382611b79565b610bce5760405162461bcd60e51b815260040161099e90612af2565b610acf838383611c43565b6000610be48361149f565b8210610c465760405162461bcd60e51b815260206004820152602b60248201527f455243373231456e756d657261626c653a206f776e657220696e646578206f7560448201526a74206f6620626f756e647360a81b606482015260840161099e565b506001600160a01b03919091166000908152600660209081526040808320938352929052205490565b33610c78611602565b6001600160a01b031614610c9e5760405162461bcd60e51b815260040161099e90612abd565b600a805460ff60b01b198116600160b01b9182900460ff1615909102179055565b610acf8383836040518060200160405280600081525061165f565b600a54600090600160b01b900460ff16610cf45750600090565b601054421015610d05575060125490565b600060115460105442610d189190612b59565b610d229190612b86565b9050601554811115610d3357506015545b601454610d409082612b9a565b60125411610d5057601354610d6a565b601454610d5d9082612b9a565b601254610d6a9190612b59565b91505090565b600a54600160a81b900460ff16610d995760405162461bcd60e51b815260040161099e90612bb9565b600d5481610da660085490565b610db09190612bff565b1115610dce5760405162461bcd60e51b815260040161099e90612c17565b6103e781610ddb60085490565b610de59190612bff565b1115610e035760405162461bcd60e51b815260040161099e90612c4e565b600e5481610e103361149f565b610e1a9190612bff565b1115610e385760405162461bcd60e51b815260040161099e90612c84565b600f54811115610e5a5760405162461bcd60e51b815260040161099e90612cbb565b34600b5482610e699190612b9a565b1115610e875760405162461bcd60e51b815260040161099e90612cef565b610e918133611dee565b7ff00d28232b285f24f2e38415deb2ceb31069e70d4505838b3911b4f02058502e610ebb60085490565b60405190815260200160405180910390a150565b6000610eda60085490565b8210610f3d5760405162461bcd60e51b815260206004820152602c60248201527f455243373231456e756d657261626c653a20676c6f62616c20696e646578206f60448201526b7574206f6620626f756e647360a01b606482015260840161099e565b60088281548110610f5057610f50612d1e565b90600052602060002001549050919050565b33610f6b611602565b6001600160a01b031614610f915760405162461bcd60e51b815260040161099e90612abd565b60405147906001600160a01b0383169082156108fc029083906000818181858888f19350505050158015610acf573d6000803e3d6000fd5b33610fd2611602565b6001600160a01b031614610ff85760405162461bcd60e51b815260040161099e90612abd565b600f55565b33611006611602565b6001600160a01b03161461102c5760405162461bcd60e51b815260040161099e90612abd565b805161103f9060169060208401906125b3565b5050565b600a54600160a01b900460ff1661106c5760405162461bcd60e51b815260040161099e90612bb9565b600d548161107960085490565b6110839190612bff565b11156110a15760405162461bcd60e51b815260040161099e90612c17565b6103e7816110ae60085490565b6110b89190612bff565b11156110d65760405162461bcd60e51b815260040161099e90612c4e565b600e54816110e33361149f565b6110ed9190612bff565b111561110b5760405162461bcd60e51b815260040161099e90612c84565b600f5481111561112d5760405162461bcd60e51b815260040161099e90612cbb565b600b543360009081526017602052604090205460ff1615156001141561116d5750600c54336000908152601760205260409020805460ff191690556111a9565b60405162461bcd60e51b8152602060048201526011602482015270139bdd081a5b881dda1a5d19481b1a5cdd607a1b604482015260640161099e565b346111b48284612b9a565b11156111d25760405162461bcd60e51b815260040161099e90612cef565b6111dc8233611dee565b7ff00d28232b285f24f2e38415deb2ceb31069e70d4505838b3911b4f02058502e61120660085490565b60405190815260200160405180910390a15050565b33611224611602565b6001600160a01b03161461124a5760405162461bcd60e51b815260040161099e90612abd565b600d548261125760085490565b6112619190612bff565b11156112be5760405162461bcd60e51b815260206004820152602660248201527f5072657365727665206d696e7420776f756c6420657863656564207469657220604482015265737570706c7960d01b606482015260840161099e565b6103e7826112cb60085490565b6112d59190612bff565b11156113315760405162461bcd60e51b815260206004820152602560248201527f5072657365727665206d696e7420776f756c6420657863656564206d617820736044820152647570706c7960d81b606482015260840161099e565b6111dc8282611dee565b606060006113488361149f565b90506000816001600160401b03811115611364576113646127a7565b60405190808252806020026020018201604052801561138d578160200160208202803683370190505b50905060005b828110156113d4576113a58582610bd9565b8282815181106113b7576113b7612d1e565b6020908102919091010152806113cc81612d34565b915050611393565b509392505050565b6000818152600260205260408120546001600160a01b03168061089e5760405162461bcd60e51b815260206004820152602960248201527f4552433732313a206f776e657220717565727920666f72206e6f6e657869737460448201526832b73a103a37b5b2b760b91b606482015260840161099e565b3361145c611602565b6001600160a01b0316146114825760405162461bcd60e51b815260040161099e90612abd565b601095909555601193909355601291909155601355601455601555565b60006001600160a01b03821661150a5760405162461bcd60e51b815260206004820152602a60248201527f4552433732313a2062616c616e636520717565727920666f7220746865207a65604482015269726f206164647265737360b01b606482015260840161099e565b506001600160a01b031660009081526003602052604090205490565b3361152f611602565b6001600160a01b0316146115555760405162461bcd60e51b815260040161099e90612abd565b61155f6000611e2b565b565b3361156a611602565b6001600160a01b0316146115905760405162461bcd60e51b815260040161099e90612abd565b60005b81811015610acf576001601760008585858181106115b3576115b3612d1e565b90506020020160208101906115c8919061278c565b6001600160a01b031681526020810191909152604001600020805460ff1916911515919091179055806115fa81612d34565b915050611593565b600a546001600160a01b031690565b6060600180546108b390612a82565b33611629611602565b6001600160a01b03161461164f5760405162461bcd60e51b815260040161099e90612abd565b600e55565b61103f338383611e7d565b6116693383611b79565b6116855760405162461bcd60e51b815260040161099e90612af2565b61169184848484611f48565b50505050565b336116a0611602565b6001600160a01b0316146116c65760405162461bcd60e51b815260040161099e90612abd565b600c55565b60006116d660085490565b905090565b60606116e682611aee565b61174a5760405162461bcd60e51b815260206004820152602f60248201527f4552433732314d657461646174613a2055524920717565727920666f72206e6f60448201526e3732bc34b9ba32b73a103a37b5b2b760891b606482015260840161099e565b611752611f7b565b61175b83611f8a565b60405160200161176c929190612d4f565b6040516020818303038152906040529050919050565b600a54600160b01b900460ff166117ed5760405162461bcd60e51b815260206004820152602960248201527f41756374696f6e206d7573742062652061637469766520746f206d696e7420456044820152681e185b5c1b1953919560ba1b606482015260840161099e565b6010544210156118335760405162461bcd60e51b8152602060048201526011602482015270105d58dd1a5bdb881b9bdd081cdd185c9d607a1b604482015260640161099e565b600d548161184060085490565b61184a9190612bff565b11156118985760405162461bcd60e51b815260206004820181905260248201527f41756374696f6e20776f756c6420657863656564207469657220737570706c79604482015260640161099e565b6103e7816118a560085490565b6118af9190612bff565b11156118fd5760405162461bcd60e51b815260206004820152601f60248201527f41756374696f6e20776f756c6420657863656564206d617820737570706c7900604482015260640161099e565b600e548161190a3361149f565b6119149190612bff565b11156119625760405162461bcd60e51b815260206004820181905260248201527f41756374696f6e20776f756c6420657863656564206d61782062616c616e6365604482015260640161099e565b600f548111156119b45760405162461bcd60e51b815260206004820152601d60248201527f41756374696f6e20776f756c6420657863656564206d6178206d696e74000000604482015260640161099e565b346119bd610cda565b610e699083612b9a565b6001600160a01b03918216600090815260056020908152604080832093909416825291909152205460ff1690565b336119fe611602565b6001600160a01b031614611a245760405162461bcd60e51b815260040161099e90612abd565b6001600160a01b038116611a895760405162461bcd60e51b815260206004820152602660248201527f4f776e61626c653a206e6577206f776e657220697320746865207a65726f206160448201526564647265737360d01b606482015260840161099e565b611a9281611e2b565b50565b33611a9e611602565b6001600160a01b031614611ac45760405162461bcd60e51b815260040161099e90612abd565b600b55565b60006001600160e01b0319821663780e9d6360e01b148061089e575061089e82612087565b6000908152600260205260409020546001600160a01b0316151590565b600081815260046020526040902080546001600160a01b0319166001600160a01b0384169081179091558190611b40826113dc565b6001600160a01b03167f8c5be1e5ebec7d5bd14f71427d1e84f3dd0314c0f7b2291e5b200ac8c7c3b92560405160405180910390a45050565b6000611b8482611aee565b611be55760405162461bcd60e51b815260206004820152602c60248201527f4552433732313a206f70657261746f7220717565727920666f72206e6f6e657860448201526b34b9ba32b73a103a37b5b2b760a11b606482015260840161099e565b6000611bf0836113dc565b9050806001600160a01b0316846001600160a01b03161480611c2b5750836001600160a01b0316611c2084610936565b6001600160a01b0316145b80611c3b5750611c3b81856119c7565b949350505050565b826001600160a01b0316611c56826113dc565b6001600160a01b031614611cbe5760405162461bcd60e51b815260206004820152602960248201527f4552433732313a207472616e73666572206f6620746f6b656e2074686174206960448201526839903737ba1037bbb760b91b606482015260840161099e565b6001600160a01b038216611d205760405162461bcd60e51b8152602060048201526024808201527f4552433732313a207472616e7366657220746f20746865207a65726f206164646044820152637265737360e01b606482015260840161099e565b611d2b8383836120d7565b611d36600082611b0b565b6001600160a01b0383166000908152600360205260408120805460019290611d5f908490612b59565b90915550506001600160a01b0382166000908152600360205260408120805460019290611d8d908490612bff565b909155505060008181526002602052604080822080546001600160a01b0319166001600160a01b0386811691821790925591518493918716917fddf252ad1be2c89b69c2b068fc378daa952ba7f163c4a11628f55a4df523b3ef91a4505050565b6000611df960085490565b905060005b8381101561169157611e1983611e148385612bff565b6120e2565b80611e2381612d34565b915050611dfe565b600a80546001600160a01b038381166001600160a01b0319831681179093556040519116919082907f8be0079c531659141344cd1fd0a4f28419497f9722a3daafe3b4186f6b6457e090600090a35050565b816001600160a01b0316836001600160a01b03161415611edb5760405162461bcd60e51b815260206004820152601960248201527822a9219b99189d1030b8383937bb32903a379031b0b63632b960391b604482015260640161099e565b6001600160a01b03838116600081815260056020908152604080832094871680845294825291829020805460ff191686151590811790915591519182527f17307eab39ab6107e8899845ad3d59bd9653f200f220920489ca2b5937696c31910160405180910390a3505050565b611f53848484611c43565b611f5f848484846120fc565b6116915760405162461bcd60e51b815260040161099e90612d7e565b6060601680546108b390612a82565b606081611fae5750506040805180820190915260018152600360fc1b602082015290565b8160005b8115611fd85780611fc281612d34565b9150611fd19050600a83612b86565b9150611fb2565b6000816001600160401b03811115611ff257611ff26127a7565b6040519080825280601f01601f19166020018201604052801561201c576020820181803683370190505b5090505b8415611c3b57612031600183612b59565b915061203e600a86612dd0565b612049906030612bff565b60f81b81838151811061205e5761205e612d1e565b60200101906001600160f81b031916908160001a905350612080600a86612b86565b9450612020565b60006001600160e01b031982166380ac58cd60e01b14806120b857506001600160e01b03198216635b5e139f60e01b145b8061089e57506301ffc9a760e01b6001600160e01b031983161461089e565b610acf8383836121fa565b61103f8282604051806020016040528060008152506122b2565b60006001600160a01b0384163b156121ef57604051630a85bd0160e11b81526001600160a01b0385169063150b7a0290612140903390899088908890600401612de4565b6020604051808303816000875af192505050801561217b575060408051601f3d908101601f1916820190925261217891810190612e21565b60015b6121d5573d8080156121a9576040519150601f19603f3d011682016040523d82523d6000602084013e6121ae565b606091505b5080516121cd5760405162461bcd60e51b815260040161099e90612d7e565b805181602001fd5b6001600160e01b031916630a85bd0160e11b149050611c3b565b506001949350505050565b6001600160a01b0383166122555761225081600880546000838152600960205260408120829055600182018355919091527ff3f7a9fe364faab93b216da50a3214154f22a0a2b415b23a84c8169e8b636ee30155565b612278565b816001600160a01b0316836001600160a01b0316146122785761227883826122e5565b6001600160a01b03821661228f57610acf81612382565b826001600160a01b0316826001600160a01b031614610acf57610acf8282612431565b6122bc8383612475565b6122c960008484846120fc565b610acf5760405162461bcd60e51b815260040161099e90612d7e565b600060016122f28461149f565b6122fc9190612b59565b60008381526007602052604090205490915080821461234f576001600160a01b03841660009081526006602090815260408083208584528252808320548484528184208190558352600790915290208190555b5060009182526007602090815260408084208490556001600160a01b039094168352600681528383209183525290812055565b60085460009061239490600190612b59565b600083815260096020526040812054600880549394509092849081106123bc576123bc612d1e565b9060005260206000200154905080600883815481106123dd576123dd612d1e565b600091825260208083209091019290925582815260099091526040808220849055858252812055600880548061241557612415612e3e565b6001900381819060005260206000200160009055905550505050565b600061243c8361149f565b6001600160a01b039093166000908152600660209081526040808320868452825280832085905593825260079052919091209190915550565b6001600160a01b0382166124cb5760405162461bcd60e51b815260206004820181905260248201527f4552433732313a206d696e7420746f20746865207a65726f2061646472657373604482015260640161099e565b6124d481611aee565b156125205760405162461bcd60e51b815260206004820152601c60248201527b115490cdcc8c4e881d1bdad95b88185b1c9958591e481b5a5b9d195960221b604482015260640161099e565b61252c600083836120d7565b6001600160a01b0382166000908152600360205260408120805460019290612555908490612bff565b909155505060008181526002602052604080822080546001600160a01b0319166001600160a01b03861690811790915590518392907fddf252ad1be2c89b69c2b068fc378daa952ba7f163c4a11628f55a4df523b3ef908290a45050565b8280546125bf90612a82565b90600052602060002090601f0160209004810192826125e15760008555612627565b82601f106125fa57805160ff1916838001178555612627565b82800160010185558215612627579182015b8281111561262757825182559160200191906001019061260c565b50612633929150612637565b5090565b5b808211156126335760008155600101612638565b6001600160e01b031981168114611a9257600080fd5b60006020828403121561267457600080fd5b813561267f8161264c565b9392505050565b60005b838110156126a1578181015183820152602001612689565b838111156116915750506000910152565b600081518084526126ca816020860160208601612686565b601f01601f19169290920160200192915050565b60208152600061267f60208301846126b2565b60006020828403121561270357600080fd5b5035919050565b80356001600160a01b038116811461272157600080fd5b919050565b6000806040838503121561273957600080fd5b6127428361270a565b946020939093013593505050565b60008060006060848603121561276557600080fd5b61276e8461270a565b925061277c6020850161270a565b9150604084013590509250925092565b60006020828403121561279e57600080fd5b61267f8261270a565b634e487b7160e01b600052604160045260246000fd5b60006001600160401b03808411156127d7576127d76127a7565b604051601f8501601f19908116603f011681019082821181831017156127ff576127ff6127a7565b8160405280935085815286868601111561281857600080fd5b858560208301376000602087830101525050509392505050565b60006020828403121561284457600080fd5b81356001600160401b0381111561285a57600080fd5b8201601f8101841361286b57600080fd5b611c3b848235602084016127bd565b6000806040838503121561288d57600080fd5b8235915061289d6020840161270a565b90509250929050565b6020808252825182820181905260009190848201906040850190845b818110156128de578351835292840192918401916001016128c2565b50909695505050505050565b60008060008060008060c0878903121561290357600080fd5b505084359660208601359650604086013595606081013595506080810135945060a0013592509050565b6000806020838503121561294057600080fd5b82356001600160401b038082111561295757600080fd5b818501915085601f83011261296b57600080fd5b81358181111561297a57600080fd5b8660208260051b850101111561298f57600080fd5b60209290920196919550909350505050565b600080604083850312156129b457600080fd5b6129bd8361270a565b9150602083013580151581146129d257600080fd5b809150509250929050565b600080600080608085870312156129f357600080fd5b6129fc8561270a565b9350612a0a6020860161270a565b92506040850135915060608501356001600160401b03811115612a2c57600080fd5b8501601f81018713612a3d57600080fd5b612a4c878235602084016127bd565b91505092959194509250565b60008060408385031215612a6b57600080fd5b612a748361270a565b915061289d6020840161270a565b600181811c90821680612a9657607f821691505b60208210811415612ab757634e487b7160e01b600052602260045260246000fd5b50919050565b6020808252818101527f4f776e61626c653a2063616c6c6572206973206e6f7420746865206f776e6572604082015260600190565b60208082526031908201527f4552433732313a207472616e736665722063616c6c6572206973206e6f74206f6040820152701ddb995c881b9bdc88185c1c1c9bdd9959607a1b606082015260800190565b634e487b7160e01b600052601160045260246000fd5b600082821015612b6b57612b6b612b43565b500390565b634e487b7160e01b600052601260045260246000fd5b600082612b9557612b95612b70565b500490565b6000816000190483118215151615612bb457612bb4612b43565b500290565b60208082526026908201527f53616c65206d7573742062652061637469766520746f206d696e74204578616d6040820152651c1b1953919560d21b606082015260800190565b60008219821115612c1257612c12612b43565b500190565b6020808252601d908201527f53616c6520776f756c6420657863656564207469657220737570706c79000000604082015260600190565b6020808252601c908201527b53616c6520776f756c6420657863656564206d617820737570706c7960201b604082015260600190565b6020808252601d908201527f53616c6520776f756c6420657863656564206d61782062616c616e6365000000604082015260600190565b6020808252601a908201527914d85b19481ddbdd5b1908195e18d95959081b585e081b5a5b9d60321b604082015260600190565b602080825260159082015274139bdd08195b9bdd59da08195d1a195c881cd95b9d605a1b604082015260600190565b634e487b7160e01b600052603260045260246000fd5b6000600019821415612d4857612d48612b43565b5060010190565b60008351612d61818460208801612686565b835190830190612d75818360208801612686565b01949350505050565b60208082526032908201527f4552433732313a207472616e7366657220746f206e6f6e20455243373231526560408201527131b2b4bb32b91034b6b83632b6b2b73a32b960711b606082015260800190565b600082612ddf57612ddf612b70565b500690565b6001600160a01b0385811682528416602082015260408101839052608060608201819052600090612e17908301846126b2565b9695505050505050565b600060208284031215612e3357600080fd5b815161267f8161264c565b634e487b7160e01b600052603160045260246000fdfea26469706673582212201697e10f90ea6b21a13e7ce85ac3f66ffbd18f443011df95372c5139c379f2a664736f6c634300080b0033",
  "immutableReferences": {},
  "source": "// SPDX-License-Identifier: MIT\npragma solidity >=0.4.22 <0.9.0;\n\nimport \"@openzeppelin/contracts/access/Ownable.sol\";\nimport \"@openzeppelin/contracts/token/ERC721/ERC721.sol\";\nimport \"@openzeppelin/contracts/token/ERC721/extensions/ERC721Enumerable.sol\";\n\n/**\n * @title ExampleNFT\n * ExampleNFT - a contract for my non-fungible creatures.\n */\ncontract ExampleNFT is ERC721, ERC721Enumerable, Ownable {\n    using Strings for uint256;\n    bool public _isWhiteListSaleActive = false;\n    bool public _isSaleActive = false;\n    bool public _isAuctionActive = false;\n\n    // Constants\n    uint256 public constant MAX_SUPPLY = 999;\n\n    uint256 public mintPrice = 0.9 ether;\n    uint256 public whiteListPrice = 0.9 ether;\n    uint256 public tierSupply = 129;\n    uint256 public maxBalance = 1;\n    uint256 public maxMint = 1;\n\n    uint256 public auctionStartTime;\n    uint256 public auctionTimeStep;\n    uint256 public auctionStartPrice;\n    uint256 public auctionEndPrice;\n    uint256 public auctionPriceStep;\n    uint256 public auctionStepNumber;\n\n    string private _baseURIExtended = \"https://\";\n\n    mapping(address => bool) public whiteList;\n\n    event TokenMinted(uint256 supply);\n\n    constructor() ERC721(\"ExampleNFT\", \"EXN\") {}\n\n    /**\n     * switch to white list sale\n     */\n    function flipWhiteListSaleActive() public onlyOwner {\n        _isWhiteListSaleActive = !_isWhiteListSaleActive;\n    }\n\n    /**\n     * switch to sale\n     */\n    function filpSaleActive() public onlyOwner {\n        _isSaleActive = !_isSaleActive;\n    }\n\n    /**\n     * switch to auction\n     */\n    function flipAuctionActive() public onlyOwner {\n        _isAuctionActive = !_isAuctionActive;\n    }\n\n    /**\n     * @dev Set the mint price.\n     * @param _mintPrice the new mint price.\n     */\n    function setMintPrice(uint256 _mintPrice) public onlyOwner {\n        mintPrice = _mintPrice;\n    }\n\n    /**\n     * @dev Set the white list price.\n     * @param _whiteListPrice the new white list price.\n     */\n    function setWhiteListPrice(uint256 _whiteListPrice) public onlyOwner {\n        whiteListPrice = _whiteListPrice;\n    }\n\n    /**\n     * @dev Set the tier supply.\n     * @param _tierSupply the new tier supply.\n     */\n    function setTierSupply(uint256 _tierSupply) public onlyOwner {\n        tierSupply = _tierSupply;\n    }\n\n    /**\n     * @dev Set the max balance.\n     * @param _maxBalance the new max balance.\n     */\n    function setMaxBalance(uint256 _maxBalance) public onlyOwner {\n        maxBalance = _maxBalance;\n    }\n\n    /**\n     * @dev Set the max mint.\n     * @param _maxMint the new max mint.\n     */\n    function setMaxMint(uint256 _maxMint) public onlyOwner {\n        maxMint = _maxMint;\n    }\n\n    /**\n     * @dev Set the auction start time.\n     * @param _auctionStartTime the new auction start time.\n     * @param _auctionTimeStep the new auction time step.\n     * @param _auctionStartPrice the new auction start price.\n     * @param _auctionEndPrice the new auction end price.\n     * @param _auctionPriceStep the new auction price step.\n     * @param _auctionStepNumber the new auction step number.\n     */\n    function setAuction(\n        uint256 _auctionStartTime,\n        uint256 _auctionTimeStep,\n        uint256 _auctionStartPrice,\n        uint256 _auctionEndPrice,\n        uint256 _auctionPriceStep,\n        uint256 _auctionStepNumber\n    ) public onlyOwner {\n        auctionStartTime = _auctionStartTime;\n        auctionTimeStep = _auctionTimeStep;\n        auctionStartPrice = _auctionStartPrice;\n        auctionEndPrice = _auctionEndPrice;\n        auctionPriceStep = _auctionPriceStep;\n        auctionStepNumber = _auctionStepNumber;\n    }\n\n    /**\n     * @dev Set the white list.\n     * @param _whiteList the new white list address.\n     */\n    function setWhiteList(address[] calldata _whiteList) external onlyOwner {\n        for (uint256 i = 0; i < _whiteList.length; i++) {\n            whiteList[_whiteList[i]] = true;\n        }\n    }\n\n    /**\n     * @dev withdraw ether.\n     * @param to to address.\n     */\n    function withdraw(address to) public onlyOwner {\n        uint256 balance = address(this).balance;\n        payable(to).transfer(balance);\n    }\n\n    /**\n     * @dev Set preserve Mint.\n     * @param numEXNs number of tokens.\n     * @param to to address.\n     */\n    function preserveMint(uint256 numEXNs, address to) public onlyOwner {\n        require(\n            totalSupply() + numEXNs <= tierSupply,\n            \"Preserve mint would exceed tier supply\"\n        );\n        require(\n            totalSupply() + numEXNs <= MAX_SUPPLY,\n            \"Preserve mint would exceed max supply\"\n        );\n        _mintExampleNFT(numEXNs, to);\n        emit TokenMinted(totalSupply());\n    }\n\n    /**\n     * @dev Get Total Supply.\n     */\n    function getTotalSupply() public view returns (uint256) {\n        return totalSupply();\n    }\n\n    /**\n     * @dev get ExampleNFT By Owner.\n     * @param _owner the owner address.\n     */\n    function getExampleNFTByOwner(address _owner)\n        public\n        view\n        returns (uint256[] memory)\n    {\n        uint256 tokenCount = balanceOf(_owner);\n        uint256[] memory tokenIds = new uint256[](tokenCount);\n        for (uint256 i; i < tokenCount; i++) {\n            tokenIds[i] = tokenOfOwnerByIndex(_owner, i);\n        }\n        return tokenIds;\n    }\n\n    /**\n     * @dev get Auction Price.\n     */\n    function getAuctionPrice() public view returns (uint256) {\n        if (!_isAuctionActive) {\n            return 0;\n        }\n        if (block.timestamp < auctionStartTime) {\n            return auctionStartPrice;\n        }\n        uint256 step = (block.timestamp - auctionStartTime) / auctionTimeStep;\n        if (step > auctionStepNumber) {\n            step = auctionStepNumber;\n        }\n        return\n            auctionStartPrice > step * auctionPriceStep\n                ? auctionStartPrice - step * auctionPriceStep\n                : auctionEndPrice;\n    }\n\n    /**\n     * @dev mint ExampleNFT.\n     * @notice check sale active, tier supply, max supply, max balance, number of mint < max mint, payable amount.\n     */\n    function mintExampleNFT(uint256 numEXNs) public payable {\n        require(_isSaleActive, \"Sale must be active to mint ExampleNFT\");\n        require(\n            totalSupply() + numEXNs <= tierSupply,\n            \"Sale would exceed tier supply\"\n        );\n        require(\n            totalSupply() + numEXNs <= MAX_SUPPLY,\n            \"Sale would exceed max supply\"\n        );\n        require(\n            balanceOf(msg.sender) + numEXNs <= maxBalance,\n            \"Sale would exceed max balance\"\n        );\n        require(numEXNs <= maxMint, \"Sale would exceed max mint\");\n        require(numEXNs * mintPrice <= msg.value, \"Not enough ether sent\");\n        _mintExampleNFT(numEXNs, msg.sender);\n        emit TokenMinted(totalSupply());\n    }\n\n    /**\n     * @dev white list mint ExampleNFT.\n     * @notice check white list sale active, tier supply, max supply, max balance, number of mint < max mint, payable amount.\n     */\n    function whiteListMintExampleNFT(uint256 numEXNs) public payable {\n        require(_isWhiteListSaleActive, \"Sale must be active to mint ExampleNFT\");\n        require(\n            totalSupply() + numEXNs <= tierSupply,\n            \"Sale would exceed tier supply\"\n        );\n        require(\n            totalSupply() + numEXNs <= MAX_SUPPLY,\n            \"Sale would exceed max supply\"\n        );\n        require(\n            balanceOf(msg.sender) + numEXNs <= maxBalance,\n            \"Sale would exceed max balance\"\n        );\n        require(numEXNs <= maxMint, \"Sale would exceed max mint\");\n        uint256 price = mintPrice;\n        if (whiteList[msg.sender] == true) {\n            price = whiteListPrice;\n            whiteList[msg.sender] = false;\n        } else {\n            revert(\"Not in white list\");\n        }\n        require(numEXNs * price <= msg.value, \"Not enough ether sent\");\n        _mintExampleNFT(numEXNs, msg.sender);\n        emit TokenMinted(totalSupply());\n    }\n\n    /**\n     * @dev auction mint ExampleNFT.\n     * @notice check auction active, auction startTime, auction timeStep, auction startPrice, auction endPrice, auction priceStep, auction stepNumber, payable amount.\n     */\n    function auctionMintExampleNFT(uint256 numEXNs) public payable {\n        require(_isAuctionActive, \"Auction must be active to mint ExampleNFT\");\n        require(block.timestamp >= auctionStartTime, \"Auction not start\");\n        require(\n            totalSupply() + numEXNs <= tierSupply,\n            \"Auction would exceed tier supply\"\n        );\n        require(\n            totalSupply() + numEXNs <= MAX_SUPPLY,\n            \"Auction would exceed max supply\"\n        );\n        require(\n            balanceOf(msg.sender) + numEXNs <= maxBalance,\n            \"Auction would exceed max balance\"\n        );\n        require(numEXNs <= maxMint, \"Auction would exceed max mint\");\n        require(\n            numEXNs * getAuctionPrice() <= msg.value,\n            \"Not enough ether sent\"\n        );\n        _mintExampleNFT(numEXNs, msg.sender);\n        emit TokenMinted(totalSupply());\n    }\n\n    /**\n     * @dev private mint ExampleNFT.\n     * @notice call safe mint.\n     */\n    function _mintExampleNFT(uint256 numEXNs, address recipient) internal {\n        uint256 supply = totalSupply();\n        for (uint256 i = 0; i < numEXNs; i++) {\n            _safeMint(recipient, supply + i);\n        }\n    }\n\n    /**\n     * @dev set base url\n     */\n    function setBaseURI(string memory baseURI_) external onlyOwner {\n        _baseURIExtended = baseURI_;\n    }\n\n    /**\n     * @dev return base url\n     */\n    function _baseURI() internal view virtual override returns (string memory) {\n        return _baseURIExtended;\n    }\n\n    /**\n     * @dev return token uri\n     */\n    function tokenURI(uint256 tokenId)\n        public\n        view\n        virtual\n        override\n        returns (string memory)\n    {\n        require(\n            _exists(tokenId),\n            \"ERC721Metadata: URI query for nonexistent token\"\n        );\n        return string(abi.encodePacked(_baseURI(), tokenId.toString()));\n    }\n\n    /**\n     * @dev override [_beforeTokenTransfer]\n     */\n    function _beforeTokenTransfer(\n        address from,\n        address to,\n        uint256 tokenId\n    ) internal override(ERC721, ERC721Enumerable) {\n        super._beforeTokenTransfer(from, to, tokenId);\n    }\n\n    /**\n     * @dev override [supportsInterface]\n     */\n    function supportsInterface(bytes4 interfaceId)\n        public\n        view\n        override(ERC721, ERC721Enumerable)\n        returns (bool)\n    {\n        return super.supportsInterface(interfaceId);\n    }\n}\n",
  "sourcePath": "/Users/yasuoyuhao/Project/eth-erc721-nft-example/contracts/ExampleNFT.sol",
  "compiler": {
    "name": "solc",
    "version": "0.8.11+commit.d7f03943.Emscripten.clang"
  },
  "schemaVersion": "3.4.4",
  "updatedAt": "2022-01-13T09:23:08.115Z",
  "devdoc": {
    "kind": "dev",
    "methods": {
      "approve(address,uint256)": {
        "details": "See {IERC721-approve}."
      },
      "auctionMintExampleNFT(uint256)": {
        "details": "auction mint ExampleNFT."
      },
      "balanceOf(address)": {
        "details": "See {IERC721-balanceOf}."
      },
      "getApproved(uint256)": {
        "details": "See {IERC721-getApproved}."
      },
      "getAuctionPrice()": {
        "details": "get Auction Price."
      },
      "getExampleNFTByOwner(address)": {
        "details": "get ExampleNFT By Owner.",
        "params": {
          "_owner": "the owner address."
        }
      },
      "getTotalSupply()": {
        "details": "Get Total Supply."
      },
      "isApprovedForAll(address,address)": {
        "details": "See {IERC721-isApprovedForAll}."
      },
      "mintExampleNFT(uint256)": {
        "details": "mint ExampleNFT."
      },
      "name()": {
        "details": "See {IERC721Metadata-name}."
      },
      "owner()": {
        "details": "Returns the address of the current owner."
      },
      "ownerOf(uint256)": {
        "details": "See {IERC721-ownerOf}."
      },
      "preserveMint(uint256,address)": {
        "details": "Set preserve Mint.",
        "params": {
          "numEXNs": "number of tokens.",
          "to": "to address."
        }
      },
      "renounceOwnership()": {
        "details": "Leaves the contract without owner. It will not be possible to call `onlyOwner` functions anymore. Can only be called by the current owner. NOTE: Renouncing ownership will leave the contract without an owner, thereby removing any functionality that is only available to the owner."
      },
      "safeTransferFrom(address,address,uint256)": {
        "details": "See {IERC721-safeTransferFrom}."
      },
      "safeTransferFrom(address,address,uint256,bytes)": {
        "details": "See {IERC721-safeTransferFrom}."
      },
      "setApprovalForAll(address,bool)": {
        "details": "See {IERC721-setApprovalForAll}."
      },
      "setAuction(uint256,uint256,uint256,uint256,uint256,uint256)": {
        "details": "Set the auction start time.",
        "params": {
          "_auctionEndPrice": "the new auction end price.",
          "_auctionPriceStep": "the new auction price step.",
          "_auctionStartPrice": "the new auction start price.",
          "_auctionStartTime": "the new auction start time.",
          "_auctionStepNumber": "the new auction step number.",
          "_auctionTimeStep": "the new auction time step."
        }
      },
      "setBaseURI(string)": {
        "details": "set base url"
      },
      "setMaxBalance(uint256)": {
        "details": "Set the max balance.",
        "params": {
          "_maxBalance": "the new max balance."
        }
      },
      "setMaxMint(uint256)": {
        "details": "Set the max mint.",
        "params": {
          "_maxMint": "the new max mint."
        }
      },
      "setMintPrice(uint256)": {
        "details": "Set the mint price.",
        "params": {
          "_mintPrice": "the new mint price."
        }
      },
      "setTierSupply(uint256)": {
        "details": "Set the tier supply.",
        "params": {
          "_tierSupply": "the new tier supply."
        }
      },
      "setWhiteList(address[])": {
        "details": "Set the white list.",
        "params": {
          "_whiteList": "the new white list address."
        }
      },
      "setWhiteListPrice(uint256)": {
        "details": "Set the white list price.",
        "params": {
          "_whiteListPrice": "the new white list price."
        }
      },
      "supportsInterface(bytes4)": {
        "details": "override [supportsInterface]"
      },
      "symbol()": {
        "details": "See {IERC721Metadata-symbol}."
      },
      "tokenByIndex(uint256)": {
        "details": "See {IERC721Enumerable-tokenByIndex}."
      },
      "tokenOfOwnerByIndex(address,uint256)": {
        "details": "See {IERC721Enumerable-tokenOfOwnerByIndex}."
      },
      "tokenURI(uint256)": {
        "details": "return token uri"
      },
      "totalSupply()": {
        "details": "See {IERC721Enumerable-totalSupply}."
      },
      "transferFrom(address,address,uint256)": {
        "details": "See {IERC721-transferFrom}."
      },
      "transferOwnership(address)": {
        "details": "Transfers ownership of the contract to a new account (`newOwner`). Can only be called by the current owner."
      },
      "whiteListMintExampleNFT(uint256)": {
        "details": "white list mint ExampleNFT."
      },
      "withdraw(address)": {
        "details": "withdraw ether.",
        "params": {
          "to": "to address."
        }
      }
    },
    "title": "ExampleNFT ExampleNFT - a contract for my non-fungible creatures.",
    "version": 1
  },
  "userdoc": {
    "kind": "user",
    "methods": {
      "auctionMintExampleNFT(uint256)": {
        "notice": "check auction active, auction startTime, auction timeStep, auction startPrice, auction endPrice, auction priceStep, auction stepNumber, payable amount."
      },
      "filpSaleActive()": {
        "notice": "switch to sale"
      },
      "flipAuctionActive()": {
        "notice": "switch to auction"
      },
      "flipWhiteListSaleActive()": {
        "notice": "switch to white list sale"
      },
      "mintExampleNFT(uint256)": {
        "notice": "check sale active, tier supply, max supply, max balance, number of mint < max mint, payable amount."
      },
      "whiteListMintExampleNFT(uint256)": {
        "notice": "check white list sale active, tier supply, max supply, max balance, number of mint < max mint, payable amount."
      }
    },
    "version": 1
  }
}